:020000020000FC
:0200000055C0E9
:0200160009C01F
:100028000AC0112706B307951395E8F31A951430FB
:1000380008F4312F1895112700B307951395E8F3A5
:100048001A95173018F049D04FD01895412F00E372
:1000580011E0E02FF12F032F8894001F1127E00FE4
:10006800F11FC591D491EC2FFD2F042F8894001F08
:100078001127E00FF11FC591D4910AB51BB51D17C3
:1000880019F40C1709F40BC00C2F1D2F1BBD0ABD4A
:100098008894D795C7950C2F1D2F19BD08BD14D06E
:1000A80018D018950FED0DBF0FE702BB05B900EF8B
:1000B80007BB0FE008BB00BD00E30BBF05B700623C
:1000C80005BF78948895FECF03E20FBD08E10EBD09
:1000D80008950EB501600EBD08950EB5087F0EBDDA
:1000E80000270DBD1CBD089500270FBD0EBD089546
:1000F80072776A6ACE5E7C59B84F0647463FB93B6D
:100108003535672FBE2CDC278323A31FDD1D9A1AE4
:10011800B4175F16EE13C111D20FEE0E4D0DDA0BA8
:100128002F0BF709E108E907F8000601140122017D
:00000001FF
