:020000020000FC
:0200000056C0E8
:020016000AC01E
:10002A000AC0112706B307951395E8F31A951430F9
:10003A0008F4312F1895112700B307951395E8F3A3
:10004A001A95173018F04AD050D01895412F04E36A
:10005A0011E0E02FF12F032F8894001F1127E00FE2
:10006A00F11FC591D491EC2FFD2F042F8894001F06
:10007A001127E00FF11FC591D49108B519B51D17C5
:10008A0019F40C1709F40BC00C2F1D2F1BBD0ABD48
:10009A008894D795C7950C2F1D2F19BD08BD15D06B
:1000AA0019D018950FED0DBF10D00FE702BB05B997
:1000BA0000E107BB0FE008BB00BD00E30BBF05B7BB
:1000CA00006205BF78948895FECF03E20FBD08E170
:1000DA000EBD08950EB501600EBD08950EB5087FD8
:1000EA000EBD00270DBD1CBD089500270FBD0EBD16
:1000FA0008953F7D966F6963D45D9853794A594252
:10010A00A03ECB37B431EA2ECC293D252C21501FF5
:10011A00E51BDA187517E6149E129610A80FF30D50
:10012A006D0CBB0B730A4F094B08FC000A0118013E
:02013A0026019C
:00000001FF
